:020000040800F2
:10000000D80B0020D5010008E51100087D0F00087D
:1000100001110008F50900080D2900080000000082
:10002000000000000000000000000000ED170008C4
:10003000F10B00080000000065160008E91900082F
:10004000EF010008EF010008EF010008EF010008D0
:10005000EF010008EF010008EF010008EF010008C0
:10006000EF010008EF010008EF010008EF010008B0
:10007000EF010008EF010008EF010008EF010008A0
:10008000EF010008EF010008EF010008EF01000890
:10009000EF010008EF010008EF010008EF01000880
:1000A000EF010008EF010008EF010008EF01000870
:1000B000EF010008EF0100088D1C0008EF010008A7
:1000C000EF010008EF010008EF010008EF01000850
:1000D000EF010008F5230008EF0100088124000863
:1000E000EF010008EF010008EF010008EF01000830
:1000F000EF010008EF010008EF010008EF01000820
:10010000EF010008EF010008EF010008EF0100080F
:10011000EF010008EF010008A51C0008EF0100082E
:10012000EF010008EF010008EF010008EF010008EF
:1001300000F002F800F03FF80AA090E8000C8244BA
:100140008344AAF10107DA4501D100F034F8AFF297
:10015000090EBAE80F0013F0010F18BFFB1A43F0A5
:1001600001031847FC5A00001C5B0000103A24BF32
:1001700078C878C1FAD8520724BF30C830C144BF0C
:1001800004680C607047000000230024002500264E
:10019000103A28BF78C1FBD8520728BF30C148BFEA
:1001A0000B607047642900F07780002070471FB50E
:1001B0001FBD10B510BD00F093F91146FFF7F7FF12
:1001C00002F08AFD00F0B1F903B4FFF7F2FF03BCBF
:1001D00002F04CFC0948804709480047FEE7FEE76B
:1001E000FEE7FEE7FEE7FEE7FEE7FEE7FEE7FEE7E7
:1001F00004480549054A064B70470000ED19000800
:1002000031010008D8050020D80B0020D8070020B5
:10021000D8070020704700000FB4044910B503AAA6
:10022000029800F0FFF810BC5DF814FB8C00002071
:100230002DE9F0410E460446002020622046E16888
:10024000884730B3252805D0D4E901219047206A9A
:10025000401CF2E7E168204600278847050018D0D7
:10026000A5F14100192802D820354FF40067324625
:10027000294620462760FFF795FF40B1012804D0AA
:10028000F61D26F007060836D8E7361DD6E72846BD
:10029000DAE7206ABDE8F0812DE9F0410646002446
:1002A00010687529314616A510D0AFF300800028DC
:1002B00002DA404213A507E031688A0701D512A58A
:1002C00002E0490704D511A5012401E0AFF3008045
:1002D00000210A2206F1240709E0B0FBF2FCB0FB82
:1002E000F2F302FB1C00303078541846491C0028F9
:1002F000F3D123462A463046BDE8F04100F039B834
:10030000000000002D0000002B0000002000000075
:100310004FF000020429C0F0128010F0030C00F02E
:100320009580CCF1040CBCF1020F18BF00F8012B32
:10033000A8BF20F8022BA1EB0C0100F087B85FEA00
:10034000C17C24BF00F8012B00F8012B48BF00F846
:10035000012B7047704770477047704710B500F029
:100360009BF8006810BD10B5044600F095F80460D5
:1003700010BD2DE9F0470D4699469246044600F11E
:1003800024080168880604D5E06921F01001216085
:1003900000E00120A84201DD471B00E00027A16921
:1003A0007A1902EB0900081AA0612078C00602D46D
:1003B0002046AFF30080002608E0D4E901211AF8B6
:1003C00006009047206A401C761C20624E45F4DBF4
:1003D0002078C0060AD52046AFF3008006E0D4E9B5
:1003E000012130209047206A401C2062381EA7F16E
:1003F0000107F4DC07E0D4E9012118F80500904773
:10040000206A401C2062281EA5F10105F3DC20466D
:10041000AFF300802078000602D50220BDE8F08707
:100420000120FBE7074B70B50D467B4400F03DF81B
:100430000446284600F04CF810B14FF0FF3070BD74
:10044000204670BD8F2800004FF0000200B5134613
:1004500094469646203922BFA0E80C50A0E80C50E4
:10046000B1F12001BFF4F7AF090728BFA0E80C5095
:1004700048BF0CC05DF804EB890028BF40F8042B8E
:1004800008BF704748BF20F8022B11F0804F18BFFB
:1004900000F8012B704700000048704774050020E9
:1004A00001694A1C02610878704700B58FB0CDE938
:1004B00001310021059105497944CDE90310114628
:1004C0006846FFF7B5FE0FB000BD0000E5FFFFFF77
:1004D000007B00F0800070470048704774050020E2
:1004E0007546FFF7F9FFAE4605006946534620F012
:1004F0000700854618B020B5FFF77AFEBDE820401A
:100500004FF000064FF000074FF000084FF0000BCF
:1005100021F00701AC46ACE8C009ACE8C009ACE882
:10052000C009ACE8C0098D46704710B50446AFF36A
:1005300000802046BDE81040FFF746BECA43026077
:10054000704721B1826842F00102826003E0826854
:1005500022F001028260704710B5044612488442BE
:1005600008D10121401501F0ABF80021601501F020
:10057000A7F817E00D48844208D10121001501F0C9
:100580009FF80021201501F09BF80BE008488442F9
:1005900008D10121C80301F093F800214FF4004075
:1005A00001F08EF810BD0000002401400028014039
:1005B000003C0140014600208A6802F004020AB1B2
:1005C000012000E0002070470146C86C80B27047EF
:1005D0000246002013680B400BB1012000E0002010
:1005E0007047014600208A6802F008020AB1012023
:1005F00000E000207047000030B5024600200023D4
:1006000050680F4C20400D790C6844EA05242043C3
:10061000506090680B4C2040D1E902542C434D7936
:1006200044EA450420439060D06A20F470000C7CBA
:10063000641EE4B2234340EA0350D06230BD0000A0
:10064000FFFEF0FFFDF7F1FFF0B504460D46002078
:100650000021092D11DDE068A5F10A0606EB460729
:10066000072606FA07F18843A5F10A0606EB4606B7
:1006700003FA06F10843E0600CE0206905EB45074A
:10068000072606FA07F1884305EB450603FA06F14B
:1006900008432061072A0FDA606B561E06EB8607B7
:1006A0001F2606FA07F18843561E06EB860605FA52
:1006B00006F10843606322E00D2A0FDA206BD61F93
:1006C00006EB86071F2606FA07F18843D61F06EBBE
:1006D000860605FA06F10843206310E0E06AA2F1FD
:1006E0000D0606EB86071F2606FA07F18843A2F1DE
:1006F0000D0606EB860605FA06F10843E062F0BD3A
:10070000816841F008018160704721B1826842F43C
:10071000A002826003E0826822F4A0028260704737
:10072000816841F004018160704700002DE9F04FBD
:1007300087B047480068A0F539704000032190FB5E
:10074000F1FABAF1000F01DA4FF0000ABAF1640FC2
:1007500001DD4FF0640A3F48006803F0CCFD074616
:100760003D4A3E4B03F02EFE054603F095FD8146C3
:10077000B9F1000F01DAC9F100093948006803F046
:10078000BAFD0546344A354B03F01CFE074603F01C
:1007900083FD0446002C00DA64423248007808B930
:1007A000012000E000202F4908702F480078012820
:1007B00024D12E48006804F071FA05462C480068E0
:1007C00004F06CFA06462B48006804F067FA074606
:1007D0002948006804F062FA8046002002900390E5
:1007E0000490059033463A464146CDE9005023A097
:1007F000FFF712FD00201C49087026E01948007818
:10080000B8B926490968A1F6CA3003F074FD054657
:10081000114A234B03F0E8FB074603F03DFD8346F6
:1008200009F0FF02E1B2534600901EA0FFF7F4FC6E
:100830000BE0084800680090094803680448026813
:10084000164801681BA0FFF7E7FC07B0BDE8F08F72
:1008500034000020080000209A9999999999F13F55
:100860000400002014010020450000205800002052
:1008700054000020500000204C0000207B432564E1
:100880003A25643A25643A25643A25643A25643A5F
:1008900025643A25643A25647D2400004800002040
:1008A000999926407B4125643A25643A25643A2586
:1008B000647D24007B4225643A25643A25643A2508
:1008C000647D240000B587B001214FF4047000F06E
:1008D000E7FE4FF4004000F0C7FE0220ADF818001C
:1008E00000208DF81B0006A9194800F04DFA1948A0
:1008F000FFF732FE00211748FFF720FE002001908D
:100900008DF808008DF809004FF460200390002056
:10091000049001208DF8140001A90E48FFF76CFE29
:1009200001210C48FFF70DFE0A48FFF7E9FE00BF62
:100930000848FFF756FE0028FAD10648FFF7F0FEF8
:1009400000BF0448FFF736FE0028FAD107B000BD0B
:10095000001001400024014000B587B001214FF490
:10096000017000F09DFE4FF4004000F07DFE20205D
:10097000ADF8180000208DF81B0006A91B4800F0F8
:1009800003FA1B48FFF7E8FD00211948FFF7D6FDE1
:10099000002001908DF808008DF809004FF46020C8
:1009A00003900020049001208DF8140001A9104844
:1009B000FFF722FE01210E48FFF7C3FD0C48FFF7A9
:1009C0009FFE00BF0A48FFF70CFE0028FAD1084836
:1009D000FFF7A6FE00BF0648FFF7ECFD0028FAD19E
:1009E000322002F01FF907B000BD000000080140EE
:1009F0000024014000BFFEE710B52448006804F061
:100A000069F90446224904F087F82249086022481F
:100A1000006804F05FF90446012100F097F81F48D0
:100A2000006804F057F90446022100F08FF81C48D2
:100A3000006804F04FF90446032100F087F8032012
:100A400000F038F81749087000201749087012E0C4
:100A500000BF1648008800F040000028F9D0144874
:100A600011490978405C1149091D08800E48007839
:100A7000401C0D4908700C4800780A4909788842E2
:100A8000E6DB322002F0CEF810BD0000340000207A
:100A90000000C8421001002048000020040000208F
:100AA000080000200D0100200C010020003801404A
:100AB0004A05002001460A2900DC09B900207047D8
:100AC0002420214A10700B293CD2DFE801F03B06BC
:100AD0000B10151A1F24292F350005201A4A5071B2
:100AE0000620ECE70920184A50720A20E7E70D209B
:100AF000154A50730E20E2E71120134A5074122059
:100B0000DDE71520104A50751620D8E719200E4A47
:100B100050761A20D3E71D200B4A50771E20CEE7CF
:100B20002120094A82F821002220C8E72520064A10
:100B300082F825002620C2E72920034A82F82900EE
:100B40002A20BCE70020BAE74A05002013B50C466E
:100B50000A2C00DC04B91CBD0B2C43D2DFE804F0E6
:100B600042060C12181E242A30363C0001221F496E
:100B7000684600F0FBF835E005221C49684600F0A5
:100B8000F5F82FE009221949684600F0EFF829E04E
:100B90000D221649684600F0E9F823E011221349B6
:100BA000684600F0E3F81DE015221049684600F0A1
:100BB000DDF817E019220D49684600F0D7F811E07A
:100BC0001D220A49684600F0D1F80BE021220749AE
:100BD000684600F0CBF805E025220449684600F09D
:100BE000C5F800BF00BF00BFB5E700004A05002000
:100BF0007047000000B589B00121042000F040FDDD
:100C00000121082000F04CFDC020ADF82000042098
:100C10008DF8230008A9244800F0B6F84FF4A0602E
:100C200000F01AFB1E208DF8040000208DF805004E
:100C300001208DF806008DF8070001A800F0D4FA15
:100C40004FF6FF70ADF818000020ADF81400ADF8B5
:100C50001A00ADF8160005A9144801F017FB00238F
:100C60001A460321114801F0EFF802A801F074F9C7
:100C70000620ADF8100002A90C4801F017F9012177
:100C80000A4801F0CFF801221146084801F06DF939
:100C900001224021054801F068F90121034801F0D3
:100CA000C7F809B000BD0000000C0140000800407A
:100CB00000B589B00121480300F0F2FC01211020A9
:100CC00000F0EEFCC020ADF8200004208DF82300D9
:100CD00008A9244800F058F84FF4A06000F0BCFACE
:100CE0002D208DF8040000208DF8050001208DF8DE
:100CF00006008DF8070001A800F076FA4FF6FF70A5
:100D0000ADF818000020ADF81400ADF81A00ADF8E9
:100D1000160005A9144801F0B9FA00231A46032168
:100D2000114801F091F802A801F016F90620ADF87B
:100D3000100002A90C4801F0B9F801210A4801F09D
:100D400071F801221146084801F00FF901224021F3
:100D5000054801F00AF90121034801F069F809B0DA
:100D600000BD0000001001400034014030B50346D2
:100D70001C788C545D78541C0D559D78941C0D5531
:100D8000DD78D41C0D5530BD2DE9F041024600251B
:100D90000026002000230024002791F803C00CF057
:100DA0000F0591F803C00CF0100CBCF1000F03D03C
:100DB00091F802C04CEA050591F800C0BCF1000FA3
:100DC00031D0146800202BE04FF0010C0CFA00F336
:100DD000B1F800C00CEA03069E4220D183004FF018
:100DE0000F0C0CFA03F7BC4305FA03FC4CEA0404AD
:100DF00091F803C0BCF1280F06D14FF0010C0CFA9A
:100E000000FCC2F814C00AE091F803C0BCF1480F1E
:100E100005D14FF0010C0CFA00FCC2F810C0401CC8
:100E20000828D1D31460B1F800C0BCF1FF0F34DD45
:100E3000546800202EE000F1080C4FF0010808FA79
:100E40000CF3B1F800C00CEA03069E4221D18300E6
:100E50004FF00F0C0CFA03F7BC4305FA03FC4CEA05
:100E6000040491F803C0BCF1280F05D100F1080C6F
:100E700008FA0CF8C2F8148091F803C0BCF1480FCE
:100E800007D100F1080C4FF0010808FA0CF8C2F87D
:100E90001080401C0828CED35460BDE8F081016169
:100EA0007047000010B504460B2C06D10723012221
:100EB00021460D48FFF7C8FB07E0052C05D10023AC
:100EC000012221460848FFF7BFFB01210648FFF732
:100ED0001CFC00BF02210448FFF77AFB0028F9D070
:100EE0000148FFF771FB10BD002401402DE9F041DE
:100EF00007460C460025002608E03846FFF7D2FFDB
:100F00000544C82001F0B4FE701CC6B2A642F4DB52
:100F1000B5FBF4F080B2BDE8F08100002DE9F04FA0
:100F200085B00B20FFF7BEFF019003F0FBF94FF0F7
:100F300066320E4BCDE9020103F044FA80460022EE
:100F40000B4B03F03FFA064600220A4B03F03AFA35
:100F500004460022084B03F047F8824603F09CF950
:100F60000490049805B0BDE8F08F000066660A4062
:100F700000002640000059400000B04000BFFEE7DE
:100F800001464906084A926942F00102064B9A61FD
:100F9000064A526822F0E062044B5A601A465268D0
:100FA0000A435A60704700000010024000000140F0
:100FB00008B50121042000F073FB0120ADF800000A
:100FC00048208DF8030069460148FFF7DDFE08BDA3
:100FD0000008014070B5322001F09AFD044601F08E
:100FE0007FFD0546012D07D10948007808B9012089
:100FF00000E0002006490870022C07D1054800785F
:1010000008B9012000E000200249087070BD00000E
:10101000020000200100002008B50121102000F08E
:101020003FFB0420ADF8000010208DF803000320E2
:101030008DF8020069460448FFF7A6FE0421024825
:10104000FFF72DFF08BD00000010014018B9002176
:10105000094A11600FE009490968491C074A1160F3
:10106000814208D104490968C943054AC2F8881178
:101070000021024A1160704788012242B00000201E
:101080000000224200B5002015490861C860142004
:10109000486100208861C8610846006840F001008E
:1010A0000860084640680F4908400D4948600846F6
:1010B00000680D4908400A4908600846006820F4A5
:1010C000802008600846406820F4FE004860002048
:1010D000886000214FF0006000F008F800BD0000BB
:1010E000001002400000FFF8FFFFF6FE024A0A402F
:1010F0000243024B1A60704780FFFF1F08ED00E0BB
:1011000000BFFEE730B589B005460C46012102203C
:1011100000F0B6FA0121082000F0C2FA01210420F3
:1011200000F0BEFA0320ADF8200018208DF823004F
:1011300003208DF8220008A92748FFF725FEC020CC
:10114000ADF8200018208DF8230003208DF8220030
:1011500008A92248FFF718FEADF81850ADF8144062
:101160000020ADF81A00ADF8160005A91C4801F0E2
:101170008DF86020ADF804000020ADF80C000120CF
:10118000ADF8060001A9164800F0F8FE0821144841
:1011900000F040FF01A9124800F046FF0821104866
:1011A00000F094FF01A90E4800F09EFF08210C48B2
:1011B00000F0EAFF01A90A4800F0F0FF0821084802
:1011C00001F02AF80121064800F020FE0121044820
:1011D00000F02EFE09B030BD000C014000080140B7
:1011E000000400407047000070B5002100230F226A
:1011F000C47804B3154C246804F4E064C4F5E064D6
:10120000210AC1F10403CA40447804FA03F1847846
:101210001440214309010E4C0678A155047804F0CE
:101220001F050124AC4005786D11AD0005F1E025E6
:10123000C5F8004109E0047804F01F050124AC4022
:10124000044D0678761145F8264070BD0CED00E09F
:1012500000E400E080E100E002490143024A11603D
:10126000704700000000FA050CED00E030B50024E6
:101270000CE0002506E00020074901EBC5010855F8
:10128000681CC5B2802DF6DB601CC4B2082CF0DBF4
:1012900000F0D6F830BD00004A010020F0B5144639
:1012A00000267F2801DC3F2900DDF0BD0B46CF176B
:1012B00001EB5777FF10C7F10707FAB2CF1701EB21
:1012C0005777FF10A1EBC707FDB2C5F10707012350
:1012D000BB40DEB24CB10A4B03EBC0039B5C334313
:1012E000074F07EBC007BB5408E0054B03EBC003F7
:1012F0009B5CB343024F07EBC007BB5400BFD4E76E
:101300004A01002008B50121102000F0C9F901218F
:10131000082000F0C5F93820ADF8000010208DF845
:10132000030002208DF8020069464148FFF72CFDBA
:101330004FF48040ADF8000010208DF8030002202B
:101340008DF8020069463B48FFF71EFD00203A4930
:101350000860642001F066FC01203849C1F8900162
:101360000021AE2000F052F90021D52000F04EF906
:101370000021502000F04AF90021A82000F046F991
:1013800000213F2000F042F90021D32000F03EF977
:101390000021084600F03AF90021402000F036F91B
:1013A00000218D2000F032F90021142000F02EF9E8
:1013B0000021202000F02AF90021022000F026F967
:1013C0000021A12000F022F90021C02000F01EF928
:1013D0000021DA2000F01AF90021122000F016F99D
:1013E0000021812000F012F90021EF2000F00EF919
:1013F0000021D92000F00AF90021F12000F006F9BF
:101400000021DB2000F002F90021302000F0FEF87E
:101410000021A42000F0FAF80021A62000F0F6F840
:101420000021AF2000F0F2F8FFF720FF08BD000018
:10143000000C0140001001409081214200802142B7
:1014400030B500241CE004F1B001C8B2002100F066
:10145000DDF80021084600F0D9F80021102000F046
:10146000D5F8002508E0084901EBC501085D012118
:1014700000F0CCF8681CC5B2802DF4DB601CC4B24F
:10148000082CE0DB30BD00004A0100202DE9F04FC0
:1014900080460C4615461E46A346A5F12000C5B25F
:1014A00000273EE00C2E07D105EB45001F4901EB5C
:1014B000800010F8079004E01D4800EB051010F8BC
:1014C00007904FF0000A26E009F0800028B121467D
:1014D0004046099AFFF7E2FE09E0099808B90120A1
:1014E00000E00020024621464046FFF7D7FE4FEAC3
:1014F00049604FEA1069601CC4B2A4EB0B00B04213
:1015000005D15C4608F1010000F0FF0806E00AF191
:10151000010000F0FF0ABAF1080FD5DB00BF781C0C
:10152000C7B2B742BEDBBDE8F08F00006A510008C9
:10153000DE5500082DE9FF4F81B0074691461E4653
:101540000E9D4FF0000A002439E0301B401EC1B24E
:101550000A2001F017FCB9FBF0F00A21B0FBF1F210
:1015600001FB1208BAF1000F16D1701EA04213DD64
:10157000B8F1000F0ED10120AB4605EBDB7149102D
:1015800001FB04710090C8B22B4620220299FFF79C
:101590007DFF12E04FF0010A0120AB4605EBDB7145
:1015A000491001FB04710090C8B208F13001CAB2C1
:1015B0002B460299FFF76AFF00BF601CC4B2B44219
:1015C000C3DB05B0BDE8F08F78B505460E4614467E
:1015D00018E07A2D03DD002506F11000C6B23A2E80
:1015E00004DD002005460646FFF740FE012000907E
:1015F00022780C2331462846FFF748FF05F1080002
:10160000C5B2641C20780028E3D178BD10B50A4625
:101610001AB10123114C236002E000230F4C236018
:10162000002115E000230E4C236000F0800323B15D
:1016300001230A4C0834236003E00023074C0834DC
:1016400023600123064C23604306180E4B1CD9B2BD
:101650000829E7DB0123014C236010BD8C81214266
:10166000B80122427047000001460020034A50683A
:1016700020F44040084350607047000000100240D2
:1016800029B1064AD2690243044BDA6104E0034AF5
:10169000D2698243014BDA617047000000100240BA
:1016A00029B1064A92690243044B9A6104E0034A55
:1016B00092698243014B9A6170470000001002401A
:1016C00029B1064AD2680243044BDA6004E0034AB7
:1016D000D2688243014BDA6070470000001002407C
:1016E00030B500210022002400232D4D6D6805F047
:1016F0000C0121B1042905D0082923D105E0294D89
:10170000056022E0274D05601FE0254D6D6805F45A
:101710007012234D6D6805F48034022505EB92426A
:101720001CB9214D554305600BE01D4D6D6805F456
:1017300000351DB11C4D5543056002E0194D554360
:10174000056002E0174D056000BF00BF144D6D68D5
:1017500005F0F0010909154D6B5C0568DD40456039
:101760000F4D6D6805F4E061090A104D6B5C45682A
:10177000DD4085600A4D6D6805F46051C90A0B4D66
:101780006B5C4568DD40C560054D6D6805F4404102
:10179000890B074D6B5CC568B5FBF3F5056130BD82
:1017A0000010024000127A0000093D007400002081
:1017B000840000200146042902D008290ED106E049
:1017C000084A128810B20022064B1A8008E0064A26
:1017D000128810B20022044B1A8001E0002000BFE2
:1017E00000BF70472408004024340140704710B502
:1017F00000F002F810BD00000CB500200190009030
:101800003348006840F480303149086000BF3048F8
:10181000006800F4003000900198401C019000988E
:1018200018B90198B0F5A06FF1D12948006800F40B
:10183000003010B10120009001E0002000900098DD
:10184000012843D12348006840F010002149086076
:101850000846006820F0030008600846006840F071
:10186000020008601A484068194948600846406804
:1018700048600846406840F4806048600846406818
:1018800020F47C1048600846406840F4E810486046
:101890000846006840F08070086000BF0C4800688F
:1018A00000F000700028F9D00948406820F00300DB
:1018B000074948600846406840F00200486000BFA1
:1018C0000348406800F00C000828F9D10CBD000066
:1018D0000010024000200240002808DA4FF4E152D4
:1018E000124B1A8000F5E1521B1F1A8008E04FF4DA
:1018F000E1520E4B1B1F1A80C0F5E1521B1D1A80CE
:10190000002909DA4FF4E152084B1B1D1A8001F53A
:10191000E1521B1D1A8008E04FF4E152034B0833DB
:101920001A80C1F5E1521B1F1A807047380400402D
:1019300030B504460025FFF7A5FB1F48006840F4BA
:1019400080301D49086000BF1B480068400C00281B
:10195000FAD04FF4806018494860A01EC4B208460F
:10196000406840EA844048600846406840F480305F
:1019700048601248006840F03200104908600E4884
:10198000006840F080700C49086000BF0A48006899
:10199000400E0028FAD00848406840F0020006498E
:1019A000486005E004484068C0F3870505F003057A
:1019B000022DF7D130BD000000100240002002408F
:1019C000042808D14FF0E021096941F004014FF0EB
:1019D000E022116107E04FF0E021096921F00401E4
:1019E0004FF0E022116170477047000010B51348B6
:1019F000006840F00100114908600846406810493D
:101A000008400E494860084600680E4908400B49E6
:101A100008600846006820F4802008600846406896
:101A200020F4FE0048604FF41F008860FFF7DFFEDF
:101A30004FF000600449086010BD00000010024033
:101A40000000FFF8FFFFF6FE08ED00E0F0B50C46E1
:101A5000154600220021068C4FF6FE773E40068494
:101A6000028B018C4FF60C7632407E1C06EA031680
:101A70002E433243104EB0420ED0104EB0420BD027
:101A8000B0F1804F08D00E4EB04205D00D4EB0429E
:101A900002D00D4EB04206D14FF6FD76314044F0F3
:101AA0000106314305E04FF6F576314044F001067A
:101AB000314302830184F0BD002C01400034014019
:101AC0000004004000080040000C0040F0B50C4647
:101AD0001546002200210026078C4FF6EF7C07EA0E
:101AE0000C070784028B018C4FF6FF7707EA041678
:101AF00040F6FF473A404FF6FF7707EA03373A438D
:101B00004FF6FF7707EA05273A43114FB8420ED048
:101B1000104FB8420BD0B0F1804F08D00E4FB842F2
:101B200005D00E4FB84202D00D4FB84206D14FF645
:101B3000DF77394046F01007394305E04FF65F770D
:101B4000394044F01007394302830184F0BD00009E
:101B5000002C014000340140000400400008004017
:101B6000000C0040F0B50C4615460022002100266E
:101B7000078C4FF6FF6C07EA0C070784828B018CF9
:101B80004FF6FF7707EA04264FF60C773A404FF6F8
:101B9000FF7707EA03172F433A43114FB8420ED09D
:101BA000104FB8420BD0B0F1804F08D00E4FB84262
:101BB00005D00E4FB84202D00D4FB84206D14FF6B5
:101BC000FF57394046F48077394305E04FF2FF571D
:101BD000394044F48077394382830184F0BD0000AA
:101BE000002C014000340140000400400008004087
:101BF000000C0040F0B50C461546002200210026DE
:101C0000078C4EF6FF7C07EA0C070784828B018C59
:101C10004FF6FF7707EA043640F6FF473A404FF6A3
:101C2000FF7707EA05273A434FF6FF7707EA0337BE
:101C30003A43114FB8420ED0104FB8420BD0B0F11A
:101C4000804F08D00E4FB84205D00E4FB84202D098
:101C50000D4FB84206D14DF6FF77394046F4805714
:101C6000394305E047F6FF57394044F4805739437C
:101C700082830184F0BD0000002C0140003401404B
:101C80000004004000080040000C004010B5012195
:101C9000034800F0FAF80121014800F0C6F810BD31
:101CA0000008004010B50121484800F0EEF8012876
:101CB0007ED10121454800F0B8F845480078012858
:101CC0000BD144480078401CC0B2424908700A2831
:101CD00003D1002008703E4908703F480078401C3E
:101CE000C0B23D490870042814D1FFF763FD3B4999
:101CF00008600820FFF75EFD404239490860084649
:101D000001683648006801F0B5FF364908600020D8
:101D10003149087001F046FE334908600F21052063
:101D2000FFF7E4F8314908600846006802F0D2FF86
:101D3000044600F09FFE2E490860084600682949C5
:101D4000096808442849096808442A49086028485D
:101D5000006824490968084423490968401A26494B
:101D6000086000F0D5FD2548006800F00FFB28B999
:101D7000214801681F480068FFF7AEFDFFF72AF908
:101D8000FFF7CCF81E4908601E480068401C1D493A
:101D900008601D4800681A49096808441A49086023
:101DA0001848006864280DD108460068642100E0E6
:101DB0000BE090FBF1F01149086000201249086027
:101DC000104908606420FFF741F910BD0010004081
:101DD0005D0000205C000020B40000200400002012
:101DE00008000020CC000020D00000204800002087
:101DF000C80000202400002028000020340000201B
:101E0000B8000020BC000020C000002021B10288E2
:101E100042F08002028004E002884FF67F731A408D
:101E200002807047CA4302827047CA4302827047E9
:101E300021B1028842F00102028004E002884FF6DC
:101E4000FE731A4002807047F0B50C4615461E46D8
:101E50000021002200230189028B038C4FF6F877C2
:101E6000394021434FF6FC473A4040F201173A43CC
:101E70004FF6DD773B404FF6FF7707EA06172F4313
:101E80003B43018102830384F0BD30B5024600204C
:101E900000230024158A05EA0103958905EA010457
:101EA00013B10CB1012000E0002030BD70B5054633
:101EB0000C46244885420ED0234885420BD0B5F10C
:101EC000804F08D02148854205D02148854202D064
:101ED0002048854200D100E000BF208850B9238906
:101EE000A28861882846FFF7B1FDE188284600F006
:101EF000A0F925E0208804280AD12389A2886188D6
:101F00002846FFF7E3FDE188284600F09BF917E03B
:101F1000208808280AD12389A28861882846FFF7EB
:101F200021FEE188284600F09AF909E02389A28879
:101F300061882846FFF75EFEE188284600F098F9A0
:101F400070BD0000002C014000340140000400403E
:101F500000080040000C0040002101804180012168
:101F600081800021C180018170471AB183890B43B0
:101F7000838102E083898B438381704770B500249D
:101F800000220023058C4FF6FE7635400584028C36
:101F90008388048B4FF68F752C40B51E2C400D881E
:101FA0002C43751E2A400D892A434D882A43144D1F
:101FB000A8420BD0134DA84208D0134DA84205D01B
:101FC000124DA84202D0124DA84213D14FF6F77518
:101FD0002A404D892A434FF6FB752A408D882A43B3
:101FE0004FF6FF652B404FF6FF552B408D892B4355
:101FF000CD892B4383800483CD888586028470BD80
:10200000002C0140003401400040014000440140E8
:10201000004801400A460021018B4FF6F773194032
:10202000114301837047000070B500240022002393
:10203000058C4FF6EF7635400584028C8388048B3F
:1020400048F6FF752C404FF6FF452C400D884FF6A3
:10205000FF7606EA05252C434FF6DF752A400D89E9
:1020600006EA05152A434D8806EA05152A43154D4B
:10207000A84202D0144DA8421DD14FF67F752A40C8
:102080004D894FF6FF7606EA05152A434FF6BF75D0
:102090002A408D8806EA05152A434FF6FF352B4066
:1020A0004FF2FF752B408D8906EA85052B43CD89BC
:1020B00006EA85052B4383800483CD880587028447
:1020C00070BD0000002C0140003401400A46002190
:1020D000018B4FF2FF7319404FF6FF7303EA02239F
:1020E000194301837047000070B5002400220023CB
:1020F000058C4FF6FF6635400584028C8388848BFF
:102100004FF68F752C404FF6FC752C400D882C43F4
:102110004FF6FF552A400D894FF6FF7606EA052552
:102120002A434D8806EA05252A43154DA84202D0C8
:10213000144DA8421DD14FF2FF752A404D894FF62C
:10214000FF7606EA05252A434FF6FF352A408D889B
:1021500006EA05252A434EF6FF752B404DF6FF751E
:102160002B408D8906EA05152B43CD8906EA051516
:102170002B4383808483CD888587028470BD0000D3
:10218000002C0140003401400A460021818B4FF6AB
:10219000F7731940114381837047000070B5002226
:1021A00000230024058C4EF6FF7635400584038C11
:1021B0008488828B48F6FF752A404FF6FF452A40F7
:1021C0000D884FF6FF7606EA05252A434DF6FF7582
:1021D0002B400D8906EA05352B434D8806EA053567
:1021E0002B430B4DA84202D00A4DA84208D14BF612
:1021F000FF752C408D894FF6FF7606EA85152C4336
:1022000084808283CD88A0F84050038470BD000094
:10221000002C0140003401400A460021818B4FF21E
:10222000FF7319404FF6FF7303EA022319438183BA
:102230007047028B4FF6F3731A400283028B0A43F6
:1022400002837047028B4FF2FF331A400283028BE6
:102250004FF6FF7303EA01231A4302837047828B10
:102260004FF6F3731A408283828B0A43828370474E
:10227000828B4FF2FF331A408283828B4FF6FF73BB
:1022800003EA01231A438283704700000022028878
:102290001D4B98420ED01D4B98420BD0B0F1804F91
:1022A00008D01B4B984205D01A4B984202D01A4BCB
:1022B000984204D14FF68F731A404B881A43174B3C
:1022C000984207D0164B984204D04FF6FF431A406D
:1022D000CB881A4302808B8883850B8803850A4B41
:1022E00098420BD0094B984208D00E4B984205D02B
:1022F0000D4B984202D00D4B984201D10B7A0386C8
:102300000123838270470000002C0140003401400B
:102310000004004000080040000C00400010004095
:1023200000140040004001400044014000480140CA
:102330007FB505460C4601211020FFF7A1F9362094
:102340008DF8000001208DF803008DF801000320B6
:102350008DF802006846FEF747FFADF80850ADF86B
:1023600004400020ADF80A00ADF8060001A90648B7
:10237000FFF78CFF012211460348FFF7F6FD01210C
:102380000148FFF755FD7FBD001000400146144A8B
:10239000126840F6D6139A420DDB114A126840F6D5
:1023A000BE539A4207DC40F25642914203DB0D4A8B
:1023B0001278012A12D1012000220B4B1A600B4B1C
:1023C0001A600122074B1A700022094B1A801B1D4C
:1023D0001A801B1D1A801B1D1A8000E00020704708
:1023E00048000020020000202400002028000020D7
:1023F0003404004010B540F225511B4800F0CAF9E2
:1024000001282FD11849091D0988C8B21749097830
:1024100069B917490978FE2909D116490978FF29B0
:1024200005D10121114A11700021134A11700F4981
:10243000097801290FD111490F4A127888540E49A1
:102440000978491C0C4A117011460978042902D1F7
:102450000021064A117006490978064A117004499C
:10246000087000BF002010BD00380140440000206B
:102470009200002093000020910000203C000020EA
:102480002DE9FF5F40F22551A94800F083F90128AA
:1024900072D1A748001D0088A64908600846007848
:1024A000A5490870A3480068592802D10220A34911
:1024B0000870A0480068582802D101209F49087080
:1024C0009C4800685A2809D100209D4908709D4900
:1024D00008709D4908709D49087089E0954800681A
:1024E00041280AD1012096490870002095490870BA
:1024F00095490870954908707AE08E48006842282E
:102500000BD101208E49087000208E4908708E4939
:10251000087001208D4908706AE0864800684328E9
:102520000AD10020864908708649087086490870DB
:102530000120864908705BE07E48006844280BD182
:1025400000207F49087001207E4908707E4908708C
:1025500000207E4908704BE07648006845280CD181
:1025600000207749087001207649087000207649DC
:102570000870764908703BE0D8E06E48006846284D
:102580000CD100206E49087001206E4908700020AF
:102590006D49087001206D49087029E065480068A0
:1025A00047280BD100206649087066490870012051
:1025B0006549087000206549087019E05D480068A9
:1025C00048280CD101205E49087000205D49087040
:1025D00001205D49087000205C49087008E0002077
:1025E000574908705749087057490870574908708B
:1025F000514800787B2802D10120554908704E4887
:1026000000787D2802D10220514908705048007896
:1026100001280AD1484800784E494F4A1278885418
:102620004D480078401C4C49087049480078022801
:102630007CD14848C078502803D101204749087010
:1026400067E044484078232863D0434800784449F1
:10265000087034E040490978414A1278881A01F03C
:102660004AFE804642460B4600203E4900F088FC68
:1026700004460D463A490978491E364A515CA1F193
:10268000300001F038FE064622462B4601F09AFE45
:1026900082468B463448006802F0A4F952465B46F5
:1026A000CDE9000101F0E4FBCDE9020101F0AEFB50
:1026B0002D4908602A480078401E2949087028489A
:1026C00000780428C6DA23484078303809281FD219
:1026D000DFE800F0050A0F14191A1B1C1D00224820
:1026E00000682249086013E01F480068204908601C
:1026F0000EE01D4800681F49086009E01A4800689C
:102700001D49086004E003E002E001E000E000BFD2
:1027100000BF00200E4908700F490870104908706A
:102720001149086032210B48FDF7F2FDBDE8FF9F1B
:10273000004800409400002090000020200000206D
:102740001C0000201D0000201E0000201F00002093
:10275000980000201801002099000020450000206A
:102760009A000020000024409C0000204C00002023
:1027700050000020540000205800002021B1828920
:1027800042F40052828104E082894DF6FF731A40C0
:102790008281704770B50246002400230025002086
:1027A00040F66A16B14200D100BFC1F3421501F0F4
:1027B0001F03012606FA03F3012D02D19689334047
:1027C00006E0022D02D1168A334001E0968A33409A
:1027D0000C12012606FA04F41688344013B10CB129
:1027E000012000E0002070BDF0B503460024002663
:1027F0000025002040F66A17B94200D100BF1846F4
:10280000C1F3421401F01F06012707FA06F5012C57
:1028100001D10C3004E0022C01D1103000E0143062
:102820001AB107682F43076002E00768AF430760EB
:10283000F0BD00002DE9F04786B005460E460024A5
:10284000A24600BFA1460027B08900B100BF2F46B5
:102850002C8A4CF6FF700440F08804432C82AC892B
:102860004EF6F3100440B08831890843718908435B
:102870000443AC81AC8A4FF6FF400440B089044366
:10288000AC8201A8FEF72CFF1F48874202D1DDF879
:1028900010A001E0DDF80CA0A88900F4004040B1D0
:1028A0000AEBCA0000EB0A1031684900B0FBF1F8EE
:1028B00007E00AEBCA0000EB0A1031688900B0FBA0
:1028C000F1F86420B8FBF0F004012009642101FB59
:1028D0001089A88900F4004040B1322000EBC90003
:1028E000B0FBF1F000F00700044308E0322000EBF9
:1028F00009106421B0FBF1F000F00F0004432C81BB
:1029000006B0BDE8F08700000038014000BFFEE7D8
:102910004FF4E1500E4909684242914202DA4142C5
:102920000B4A11600A490968814201DD08490860C3
:10293000084909684242914202DA4142054A11605F
:1029400004490968814201DD0249086070470000BE
:102950002400002028000020490050EAC12018BFB0
:1029600004204A0D18BF40F0010040F2FF72B2EBA4
:10297000515F08BF40F00200012808BF05207047E2
:102980002DE9F0414F1E00EBC7010446D1E90001DB
:1029900015461E4637F006020DD02A46334601F092
:1029A00011FD7F1E04EBC703D3E9002301F060FA99
:1029B00037F00602F1D1022F25D0042F13D0062FB5
:1029C00018BFBDE8F0812A46334601F0FBFCD4E98C
:1029D0000A2301F04DFA2A46334601F0F3FCD4E90C
:1029E000082301F045FA2A46334601F0EBFCD4E90E
:1029F000062301F03DFA2A46334601F0E3FCD4E910
:102A0000042301F035FA2A46334601F0DBFCD4E911
:102A1000022301F02DFA2A46334601F0D3FCD4E913
:102A20000023BDE8F04101F023BA00000022134664
:102A30001046014901F0D8BA0000F03F01F018BA81
:102A4000002213461046114601F0CEBA40F2013280
:102A500000204FF0E04102F042BB0000024A00209B
:102A6000110702F03CBB000001FDFFFF014600BF63
:102A7000012070472DE9F04705461449284602F029
:102A800087FA044612480168204602F081FA11498B
:102A90000860114801680F48006802F07BF982461F
:102AA0000E48006880F000492146484602F072F95D
:102AB0008046514602F06CFA074602F0EFF80646EF
:102AC000034804603046BDE8F087000000A03C45A4
:102AD000D4000020D8000020500000204C0000202E
:102AE0000948007838B10948006820B90020064933
:102AF00008700120704705480068012801D102498B
:102B000008700020F6E70000A80000200001214224
:102B100001462D48006828B92C480088401C2B4AE3
:102B2000108002E00020294A10802748006828B958
:102B30002748007810B90120254A107025480078F0
:102B4000B0B923480078012807D123480078401CF9
:102B5000214A107001201F4A10701F480078022877
:102B600006D100201C4A10701C4A108002207047B9
:102B700015480068012804D10020154A1070154A34
:102B800010701548007801281CD114480088401C9A
:102B9000124A10801046008888420ADD0B480088DF
:102BA000884206DA00200C4A10700C4A108001207E
:102BB000DDE706480088884204DD0020064A1070E0
:102BC000064A10800020D2E700012142A600002022
:102BD000A0000020A1000020A2000020A4000020EE
:102BE00010B56FF00400FEF7EBFE0A4800680A49D2
:102BF000B0FBF1F0094908700846007800EB40018D
:102C0000C1EBC0104FF6FF7101EAC0000449088013
:102C100010BD00006000002000127A008800002033
:102C20008A0000200146114A12884A434FF0E023EF
:102C30005A6100229A611A46126942F001021A6131
:102C400000BF4FF0E022106900F001021AB100F459
:102C50008032002AF5D04FF0E022126922F0010202
:102C60004FF0E0231A6100229A6170478A00002029
:102C70000146114A12784A434FF0E0235A6100227C
:102C80009A611A46126942F001021A6100BF4FF0C0
:102C9000E022106900F001021AB100F48032002A2B
:102CA000F5D04FF0E022126922F001024FF0E0234C
:102CB0001A6100229A6170478800002000BF054A0F
:102CC000128802F04002002AF9D0C2B2014B1B1D4B
:102CD0001A807047004800400920FEF729FE0220B4
:102CE000FEF74EF90120FEF74BF9FFF779FF4FF49D
:102CF0007A70FFF797FF4FF47A70FFF793FFFEF7B4
:102D00008BF9FEF755F9FEF7FDFAFDF773FFFDF7B6
:102D1000CFFF4FF41651482000F052FF4FF4967049
:102D2000FFF780FF4FF4FA31482000F0F7FE002152
:102D300041F61F40FEF7E6F9FDF7C4FDFDF70CFE76
:102D400041F61F416320FFF7F3FA14E00A480078C8
:102D500020B9FDF7EBFC00F021F801E0FDF74CFE97
:102D600001200649087000200549087000BF03488B
:102D700000780028FBD1E9E7010000205D00002079
:102D80005C00002010B50246012000E050430B1EFD
:102D9000A1F10104E1B2F9D110BD000038B55FA284
:102DA00000210846FEF710FC0C20012300905E482D
:102DB000027800215F20FEF7BDFB5CA20A21002003
:102DC000FEF702FC0C200423009059480A210268F7
:102DD0001E20FEF7AFFB57A214210020FEF7F4FBE4
:102DE0005748006800280FDA56A214215020FEF739
:102DF000EBFB0C2003230090514800684242142151
:102E00005F20FEF797FB0DE04FA214215020FEF744
:102E1000DBFB0C20032300904948142102685F204B
:102E2000FEF788FB49A21E210020FEF7CDFB4A4891
:102E3000006800280FDA43A21E215020FEF7C4FBD1
:102E40000C20032300904448006842421E215F206A
:102E5000FEF770FB0DE03CA21E215020FEF7B4FBF4
:102E60000C20032300903C481E2102685F20FEF7DF
:102E700061FB3AA228210020FEF7A6FB39A22821F7
:102E80004420FEF7A1FB38A228215A20FEF79CFB24
:102E900036480068642190FBF1F40C20022322469E
:102EA000282100903720FEF745FB30480068642158
:102EB00090FBF1F201FB12040C2002232246282190
:102EC00000904E20FEF736FB28480068642190FBF6
:102ED000F1F201FB12000A2807DA0C20022300227B
:102EE000282100904820FEF725FB21A23221002056
:102EF000FEF76AFB0C48007820B91FA23221084671
:102F0000FEF762FB08480078012804D11BA2322199
:102F10000846FEF759FBFEF793FA38BD466C616729
:102F20005F53746F700000000200002041444300B2
:102F300048000020456E636F4C4546540000000079
:102F4000040000202D0000002B000000456E636F80
:102F5000524947485400000008000020564F4C5486
:102F6000414745002E0000005600000034000020BC
:102F70004D6F746F720000004F2D4E004F4646009B
:102F80002DE9F04D1D460C4698B0174621F0004142
:102F900023F00043002814BF4FF0010C4FF0000C49
:102FA0000CEB440CFE4A0CEB02064FEA620C664541
:102FB0002BD33E0018BF012606EB45061644F94AFE
:102FC000964222D3F84A53EA070C02D0944205D124
:102FD00048B918B000201146BDE8F08D002808BFA0
:102FE0004FF0000C01D04FF0010C0CEB440212F535
:102FF000001F0AD8002F14BF4FF0010C4FF0000C37
:103000000CEB450212F5001F07D918B03A462B46C3
:103010002146BDE8F04DFFF711BD0022DFF88CA37B
:10302000002CB8BF534526DADFF884C36345A8BF38
:10303000022220DADFF870C39C451CDCDFF874C381
:103040000CEB235CBCF1140F08DDCCF1340627FA3D
:1030500006FC0CFA06F6BE420DD108E05FB9CCF1D1
:10306000140623FA06FC0CFA06F69E4203D10CF075
:103070000102C2F1020251EA000C19D1002D17DA47
:10308000002C18BF022A01D0012A07D00220FDF728
:103090006AF918B0BDE8F04DFFF7C8BC0220FDF793
:1030A00062F9FFF7C3FC18B081F00041BDE8F08D74
:1030B000B7F1000C6CD1534525D104F1804212F5D3
:1030C000801201BF00280020B74918B008BFBDE832
:1030D000F08DB548884207DC002DA1BF6046294627
:1030E00018B0BDE8F08D07E0281E05DA80F0004139
:1030F00018B06046BDE8F08DAF497944D1E90001D0
:1031000018B0BDE8F08DDFF8A0C2634525D1002DD1
:103110001FDA19B1514512D1D8B909E0002840F0A1
:10312000EC82A24A214618B062F31E01BDE8F08D80
:103130000020214618B060F31E01BDE8F08D08DACA
:1031400018B02346BDE8F04D02460020614600F06D
:103150004BBF18B02146BDE8F08D514518DAB5F1E6
:10316000804F0DD0A5F1005CBCF1FF5C10D1B4F133
:10317000000C0DDB18B06146BDE8F04D00F0ECBB73
:10318000234618B00246BDE8F04D194601F01AB9C1
:10319000060024F0004C3BD1D9B1514533D1002C6D
:1031A00006DD002DA1BF0020514618B0BDE8F08D0E
:1031B000002C01DD002D1BDB002C13DA002D11DBB0
:1031C000012A4FF0000014BF78497C4918B0BDE8CF
:1031D000F08D022A18BF002C0AD0012A08D1002C39
:1031E00006DA0AE0002CB8BF002D11DA012A04D05B
:1031F000002018B00146BDE8F08D18B000204FF057
:103200000041BDE8F08DA1F14050B0F17F601AD0CF
:10321000012000EBE47050EA020421D0624C521EFF
:103220004FF0000B104304BF4FF0000B644C654897
:1032300083427CDD644A654893421FDD884217DB88
:10324000002D25DB37E0002C00DA4AB1022A0CBF42
:1032500001204FF0FF3018B0BDE8F04D01F04BB841
:103260000120FDF780F818B0BDE8F04DFFF7E8BB8E
:103270004D4A8A4202DC002D0ADC1CE0814202DA5F
:10328000002D18DA04E0484B994220DD002D12DDB4
:103290000220FDF768F8FFF7D9FB05460E4600222D
:1032A00053465846214601F08DF818B066F31E01CA
:1032B0002846BDE8F08D0220FDF755F8FFF7CEFB5C
:1032C0000A46214618B062F31E01BDE8F08D0022C7
:1032D0003046614601F09CFA80460E466FF00102CE
:1032E00001F0FDFE4FF05532394B01F09FF9424697
:1032F000334601F067F80022364B01F097F9824619
:103300004246334604911046194601F05BF8524696
:10331000049B01F057F88A4600904FF0C0422E4BB4
:103320004046314601F04EF82C4A2B4B00E027E096
:10333000CDE906015146009801F044F8824601911A
:10334000274A284B4046314601F03CF85246019B43
:1033500001F05EFA82460B4602460591DDE9060160
:1033600000F086FDDDE9062300268846304601F0A0
:103370004FFA5246059B01F059F9024600F07EB91A
:103380000020B1F5801F07DA35223046614601F092
:10339000A6FE06466FF0340000EB215024E000004A
:1033A000FFFF1F00FFFF0F000000F03F0000F07F55
:1033B0000000404301FCFFFF5A2B00000000F0FF1B
:1033C0000000F0BF0000E0410000F043FFFFEF3FCE
:1033D0005555D53F0000E03F4715F73FFE822B656E
:1033E00044DF5DF80BAE543EA0F2FF300190C1F314
:1033F000130040F07F6141F040510291FE49884244
:10340000D8BF002004DDFD498142C8BF012001DD95
:103410000D9008E000200D900198401C019002984A
:10342000A0F5801002900299F54878440B910D990F
:1034300000EBC100D0E900230F9330460A920B99AC
:1034400001F0E6F9CDE90601DDE90A2130460F9BDE
:1034500000F00EFD02460B460020EA4900F0C4FDD4
:10346000059102460B460090DDE9060100F0AAFF37
:103470001490E5488A464FF00008784402990068A5
:1034800012904FF0005040EA61010D980F9B01EB44
:10349000804000F5002109910A9A129801F0B8F9CC
:1034A00032460B9B01F0C2F84246534600F08AFFB9
:1034B0000646029140465146099B129A00F082FF4F
:1034C000DDE9062301F0B2F83246029B01F0A0F9D3
:1034D000059B009A00F076FF0091149A04905346E1
:1034E0001046194600F06EFF06460246C7480B46D6
:1034F000029106217844FFF743FACDE90510029BBB
:1035000032461046194600F05DFFDDE9053200F055
:1035100059FF05910646534640461946149A00F055
:10352000A7FC009B049A00F04DFF3246059B00F07B
:103530009FFCCDE90510424653461046194600F05F
:1035400041FF0022B24B02910A9000F091FCDDE9AC
:10355000053200F08DFC0E464246AD4B404601F070
:1035600057F9029B0A9A01F053F9DDE9053201F09F
:103570005DF8424602910A9033461046514600F0EB
:1035800021FFCDE906015346149A02990A9800F0EA
:1035900019FF8A460290334642460099049800F08B
:1035A00011FF5346029A00F063FC82460B46024626
:1035B0000591DDE9060100F05BFCDDE90623002052
:1035C0008846064601F024F95246059B01F02EF884
:1035D000824609914FF060428E4B3046414600F0E2
:1035E000F1FE049006918C4A8A4B5046099900F0EE
:1035F000E9FE82460291894A894B3046414600F0F5
:10360000E1FE5246029B00F033FC864B7B440D9A50
:1036100003EBC203D3E9002300F02AFC0E900791CC
:10362000019800F068FE0591DDE9061382460E9AC6
:10363000049800F01DFC7C4A7A440D9B02EBC30306
:10364000D3E900230093029200F012FC5246059B3E
:1036500000F00EFC0026884652463046059B01F0DD
:10366000D7F8009B029A01F0D3F8069B049A01F068
:10367000CFF8079B0E9A00F0D9FF024600200B46B8
:1036800002903846294600F09DFE824601912B4665
:1036900038461946029A01F0BBF83246434600F01C
:1036A00091FE5246019B00F0E3FB07468A463246F4
:1036B00043462946029800F085FE05460E463A46E6
:1036C000534600F0D5FB594A8846914221DBA8EBCE
:1036D000020353EA000210D12A46334601F098F85B
:1036E000CDE90401524A534B3846514600F0C0FB25
:1036F000DDE9042300F064FF21D20220FCF733FE51
:10370000FFF7A4F90A46214618B062F31E01BDE88E
:10371000F08D494B28F000429A4210D3474A08EBFB
:10372000020353EA00027FF4C6AD2A46334601F095
:103730006FF83A46534600F043FF7FF6BCAD0022D7
:10374000019228F000403E493E4A01EB205182425E
:1037500023DA481C4FF4801121FA00F040443A4A21
:10376000C0F30A517A44394BA1F2FF31CB4020EA31
:103770000303C0F3130040F48010C1F11401C840EA
:1037800012680190B8F1000FBCBF4042019028467A
:10379000314601F03DF805460E462A463346384686
:1037A000514600F065FB4FF000084246284B40466A
:1037B000059100F007FECDE90601264A264B40465A
:1037C000059900F0FFFD009102902A4633464046DD
:1037D000059901F01DF83A46534600F027FF1F4AAD
:1037E0001F4B00F0EFFD009B029A00F041FB0746E3
:1037F000884602460B4635E08E9803007AB60B00E9
:10380000A22700000000F03FDA2700000827000090
:103810000000084009C7EE3FFD033ADCF5015B14E8
:10382000E02F3EBEE0250000A425000000009040EF
:10383000FE822B654715973C00CC904000346F3FCB
:1038400001FCFFFF0000E03FF0240000FFFF0F003D
:10385000432EE63F396CA80C615C20BEEF39FAFEBE
:10386000422EE63FDDE9060100F002FBDDE906231A
:1038700005460E4600F0CCFF3A46434600F0D6FE21
:103880000F462A46334600901046194600F09AFD2E
:10389000824602462E4888460B4605217844FFF7AB
:1038A0006FF85246434600F08DFD2A46334600F03D
:1038B000BDFE80468A463B4628463146009A00F0C7
:1038C00081FD3B46009A00F0D3FA06910090002259
:1038D0004FF080434046514600F09AFF0F460C904F
:1038E000424653462846314600F06CFD3B460C9A52
:1038F00000F07AFB069B009A00F08AFF2A463346C6
:1039000000F086FF0022134B00F090FE0546019860
:103910000E4601EB00510815002810DC2846314600
:10392000019A01F0DCFBFFF717F8042808BFFFF746
:1039300095F828463146019A01F0D1FB05460B4621
:1039400018B02A4658462146BDE8F04D00F03ABD71
:10395000902300000000F03F2DE9F04106460F469D
:1039600000F070FE041E0D4618BF0120284320F011
:103970000040C0F17F6000F1E040C00F0ED0301C6D
:1039800018BF0120384320F00040C0F17F6000F1F3
:10399000E040C00F04BF0120FCF7E5FC20462946AB
:1039A000BDE8F0812DE9F0474D480078962191FB64
:1039B000F0F6304601F08EF904464A4800780128B6
:1039C00008D1494801684948006801F0E1FA4749CF
:1039D00008600FE046480078012808D14248016895
:1039E0004248006801F02AF84049086002E00020DF
:1039F0003E49086021463D48006801F097FA01D22F
:103A00003A48046084F0004638480168304601F0C6
:103A10008DFA03D284F000403449086035490968C2
:103A2000354A1268881A01F055F905462946334887
:103A3000006801F003F83149086031492F480068F7
:103A400001F074FA02D22E482C4908602D492B4807
:103A5000006801F06BF902D22A48284908602A4818
:103A60000068FEF793FC012802D10020234908607A
:103A70001C480078012803D01D48007801280AD18D
:103A800022491A48006801F085F9214908600020A0
:103A90001A4908601DE01D491448006801F07AF9D0
:103AA00081461C4801681548006801F073F9824698
:103AB00085F0004818480168404601F06BF9074658
:103AC000514601F065FA0646494600F0B7FF104935
:103AD00008600F48006801F0E1F8BDE8F0870000D9
:103AE000200000201E000020FC000020F400002028
:103AF0001F0000200400002008000020000100201A
:103B000000409C4500409CC534000020000020413E
:103B1000F8000020080100200401002030B587B023
:103B200005460C46012144F20400FDF7B9FD4FF4AF
:103B30000070ADF8180003208DF81A0018208DF8D9
:103B40001B0006A91C48FDF71FF94FF48060ADF873
:103B5000180004208DF81B0006A91748FDF714F97A
:103B600025208DF8040003208DF805008DF806004F
:103B700001208DF8070001A8FDF736FB0294002014
:103B8000ADF80C00ADF80E00ADF81000ADF8140063
:103B90000C20ADF8120002A90848FEF74BFE0122E6
:103BA00040F225510548FEF71FFE01210348FEF7AC
:103BB000E5FD07B030BD00000008014000380140BD
:103BC00030B587B005460C4601210820FDF768FD99
:103BD00001218804FDF754FD4FF40060ADF8180092
:103BE00004208DF81B0006A92048FDF7CDF84FF4FE
:103BF0008060ADF8180018208DF81B0003208DF8A8
:103C00001A0006A91948FDF7BFF827208DF804000F
:103C100000208DF8050001208DF806008DF80700C2
:103C200001A8FDF7E1FA02940020ADF80E00ADF80E
:103C30001000ADF80C000C20ADF812000020ADF81B
:103C4000140002A90A48FEF7F5FD02A90848FEF78C
:103C5000F1FD012240F225510548FEF7C5FD012185
:103C60000348FEF78BFD07B030BD0000000C01409B
:103C7000004800402DE9FC5F044689465248007820
:103C800001280FD15148007801F03CF80646504811
:103C9000006880F000453146284600F03DFF4D4960
:103CA000086013E04C48007801280CD147480078A0
:103CB00001F028F8054629464548006800F02CFF29
:103CC0004449086002E000204249086004EB090111
:103CD000084600F0FFFF414908604148006800F0D5
:103CE00081FE07464FF066323E4B00F06BFB054607
:103CF00000F08CF83A4908603848006800F072FE1D
:103D000007464FF03332384B00F05CFB05460E4659
:103D10003348006800F066FE82462A46334600F0CB
:103D2000A7F8CDE9000100F071F82D4908600846B8
:103D300001682E48006800F081FE2C490860254883
:103D400001682A48006800F079FE2849086028497F
:103D50002648006801F0EAF802D2254823490860A5
:103D600024492248006800F0E1FF02D221481F499F
:103D70000860214801681D48006801F00BF80746FB
:103D80001E4900F0C9FE05461D4801681448006838
:103D900001F000F80746194900F0BEFE0646294624
:103DA00000F04CFE1749086017480068FEF7EEFA6D
:103DB000012802D100200D4908601248006800F077
:103DC0006DFFBDE8FC9F00001C00002020000020CB
:103DD000F0000020E80000201D000020E00000208E
:103DE000E40000206666E63F3333D33FEC0000205A
:103DF00000401C4600401CC6580000200000204126
:103E000054000020DC0000203400002021F000429B
:103E1000A2F16052B2F5801F01F0004328BFD2F139
:103E20007F6C0BD95FEA001C43EAC20242EB507080
:103E300018BF704728BF20F001007047B2F5801FFF
:103E4000BCBF184670474FEA410C1CF5001F02D258
:103E5000084601F066B870B500F05EFB000000890E
:103E6000FFF7F6BF4FF00040A0F58000704700005C
:103E700010B591EA030F48BF83F0004300F1D084EE
:103E8000841A71EB030C05D2121943EB0C03001BCF
:103E900061EB0C01DFF824E14FEA1154A4EB135C51
:103EA0001EEA430F18BF9EEA445F73D023EA0E0355
:103EB000DCF1200E21EA045143F4801332D322FABC
:103EC0000CFE10EB0E0023FA0CFE41EB0E01CCF1C0
:103ED000200E03FA0EFE10EB0E0051F10001B1F5B9
:103EE000801FCCF1200E32D201EB045112FA0EF2F7
:103EF000BDE8104058BF7047401C38BF5FEA42021F
:103F000018BF7047002814BF20F0010041F10001E4
:103F10004FEA410313F5001F38BF7047A1F1C041BC
:103F200000F048BB012A43EB0302ACF1200CDCF1AA
:103F30001F0E32BF4FF0000E23FA0CF310EB0300FC
:103F400041EB0451B4EB115FD0D0A1EB045101F56A
:103F5000801149085FEA300001EB04510ED350F1A3
:103F6000000038BF12FA0EFE08D1BDE81040C9E7C4
:103F7000401C38BF5FEA4202CAD1C3E7BDE8104027
:103F80004FEA410313F5001F38BF7047A1F1C0414C
:103F900000F010BB9EEA445F08D011EA5E0FBDE856
:103FA000104004BF01F0004100207047BDE8104000
:103FB00070B500F0B1FA00BF64FBBE3E0000E0FF48
:103FC00002494FF0000001F058B800BF0000F87F30
:103FD000491058BFC1F140415B1058BFC3F1404385
:103FE0008B42EFF3008070472DE9C04130B4DFF819
:103FF000A0C23CEA111418BF3CEA131400F0EC8094
:1040000081EA03051CEA111444EAD57418BF1CEABE
:10401000131500F0C780A4EB05044FF0004545EAF6
:10402000C12145EAC32341EA505143EA525304F106
:104030007F74994204F500344FEAC0204FEAC2224F
:1040400008BF904200F09C804FEA13650FF24016C3
:10405000765D4FEA134506FB05F7C7F1807706FB4F
:1040600007F74FEAD737A7FB03687642C8F58038D1
:10407000A7FB06CE38BFA8F1010807FB08E64FF002
:10408000000EA6FB028CE6FB03CEDCF1000CCEF1A9
:10409000004E38BFAEF1010EA6FB0C584FF00007E2
:1040A0004FF00005E6FB0E87A1FB08C6A0FB07CE7C
:1040B00016EB0E0645F10005E1FB076515F1E04E34
:1040C0007EBFA4F580345FEA46066D4116F1800795
:1040D00045F100054FEA17274FEA066647EA0567EC
:1040E000A6F1DE46B6F1805F4FEA15251FD93846A6
:1040F00024F0010C05EBC471BCF1FE6F01EB0C1157
:1041000002D8F0BCBDE8008124425CBF01F5801EEE
:104110009EEAC47F02D4F0BCBDE80081244238D4BA
:10412000F0BCA1F1C041BDE8004100F043BA4FEA44
:10413000D22242EA43524FEAD323A7FB02864FEA38
:10414000D02040EA415007FB03661EEA0E0F4FEAFB
:10415000D12105FB026658BFA6EB0056B6EB005610
:104160004FEA520E4EEAC37E18EB0E0E56EB530E7C
:10417000BDD518EB02085E417F1C55F10005B6E77E
:104180004FF480154FF000074FF000064FF0000885
:10419000ADE7F0BC4FF0000001F1C04101F000417B
:1041A000BDE8008111EA0C1F0CEA131500D00CE0E9
:1041B00013EA0C1F00F025804FF00000F0BC81EAEC
:1041C000030101F00041BDE80081F0BCBDE8004101
:1041D00081EA030100F0EEB9F0BCBDE8004170B522
:1041E00000F09AF9097EFC3E00F007B881EA03016D
:1041F0004FF0000001F00041704781EA030100F038
:10420000D9B9F0BCBDE800414FF00000214970472A
:10421000FFFDFBF9F7F5F4F2F0EEEDEBE9E8E6E48B
:10422000E3E1E0DEDDDBDAD8D7D5D4D3D1D0CFCD12
:10423000CCCBCAC8C7C6C5C4C2C1C0BFBEBDBCBB4B
:10424000BAB9B8B7B6B5B4B3B2B1B0AFAEADACAB46
:10425000AAA9A8A8A7A6A5A4A3A3A2A1A09F9F9E20
:104260009D9C9C9B9A9999989797969595949393D2
:10427000929191908F8F8E8E8D8C8C8B8B8A898969
:1042800088888787868585848483838282818180EC
:104290000000FF070000F87F4FEA41034FEA535345
:1042A000A3F58063D3F11E03C8BFD3F1210C0CDD4D
:1042B0004FF0004242EAC12242EA505232FA03FC75
:1042C0008CEAE17CACEBE1707047102BC4BF00209E
:1042D000704703F5787CBCF1FF3F04D06FF00042DB
:1042E00082EA2100704770B500F016F949922480E7
:1042F00000207047F2E710F0004248BF4042B0FA99
:1043000080F310FA03F10AD0C3F11D0303F58063B3
:104310004FEA415002EB035202EBD12170474FF0BC
:1043200000007047B0FA80F310FA03F10AD0C3F12D
:104330001D0303F580634FEA41504FEA035202EB3D
:10434000D12170474FF000007047000051EA030C84
:1043500017D41CF5801F58BFBCF5801F00F10680E4
:10436000994218BF704708BF9042704707D711F5B0
:10437000801F58BF13F5801F19D499427047894296
:1043800070471CF5801F08D5BCF5801FF7D58B4200
:1043900018BF704708BF824270474FF4001C1CEBE7
:1043A000410F38BF1CEB430F01D28B42704770B5F1
:1043B00000F0B2F8922449004FF000514FF08053C2
:1043C000FFF706BEDFF848C170B51CEA111E1EBF1C
:1043D0001CEA13159EEA0C0F95EA0C0F00F06F8093
:1043E00081EA030423EA4C134EEAD47E21EA4C11FD
:1043F00041F4801143F48013AE44A1FB024CA0FBB6
:104400000365AEF17F7E361955EB0C05A1FB034C1D
:104410004CF10003A0FB021C16EB0C06654153F1A6
:104420000003094218BF46F0010613F4007F0BD1C8
:104430004FEA03314FEA0530340341EA155140EAAF
:1044400016506FF003020AE04FEAC3214FEAC5207D
:10445000F40241EA555140EA56506FF0020202EB75
:104460002E4201EB025585EACE710AD05FEA440C78
:1044700018BF24F0004450F1000041F1000120EA8F
:10448000D47040F2FE7C624500D270BDA84214BFD9
:104490004FF080444FF04044002E08BF0024BEF18E
:1044A000806FA8BFA1F1C041BDE8704080F282805A
:1044B0004FF0000001F1C04101F0004170479EEA59
:1044C0000C0F0CEA131518BF95EA0C0F06D04FF02D
:1044D000000081EA030E0EF0004170BD00F01CF8F0
:1044E0008900013E00F007B800F009B84FEA430C1C
:1044F0005FEA5C5C08D081EA030100F05BB84FEA38
:10450000410C5FEA5C5CF6D14FF000000149704756
:104510000000FF070000F87F0EF1020E2EF0030EE0
:104520005EF8046B364205D4012A43EB030515F50A
:10453000001F12D8012841EB010C1CF5001F0CD8FC
:104540000ED14FEAD17C15F5001F0CEB4C0C0CF191
:10455000020C08BF4CEBD37C04E04FF0080C01E0E8
:104560004FEAD37C0CEB4C0526FA05F606F007065D
:10457000B6F1040C06D20EEB860CBDE870404CF090
:10458000010C6047DFE80CF0090B02024FF000411C
:104590004FF00000A1F5002170BD1946104601281A
:1045A00051EB010418BFD4F5001484BF002001F0C2
:1045B000004170BD0808A0F500114FEA31017047B5
:1045C00053EA010C17D41CF5801F58BFBCF5801F9F
:1045D00000F106808B4218BF704708BF82427047C7
:1045E00007D713F5801F58BF11F5801F19D48B42D0
:1045F00070479B4270471CF5801F08D5BCF5801F93
:10460000F7D5994218BF704708BF904270474FF4E2
:10461000001C1CEB430F38BF1CEB410F01D2994229
:1046200070470FB40CBC03BCFFF7C1BE91EA030F87
:1046300010B581F000413FF523AC83F0004300F05A
:10464000EFB800002DE9F04101F5801CBCF5001F1A
:10465000C0F2C3804FEA115C21EA0C510CF1FD0C51
:1046600041F480115FEA5C0C0CF5C07C01D3400082
:1046700049413DA4890241EA905187028E0E0A0CFD
:10468000A45D04FB04F602FB06F6C6F14046A4FB5B
:104690000662F60D46EA422606FB06F4A4FB012359
:1046A0005242C3F1404338BF5B1EA6FB02420024C6
:1046B000E6FB0324D20B42EA4446A6FB0623A1FBF9
:1046C00002E2A3FB07E4A4184FF0000252F100023B
:1046D000E3FB01426442C2F1404E38BFAEF1010E2D
:1046E000A6FB04234FF00002E6FB0E32A2FB0346BA
:1046F0004FF00004B61954F10004E2FB0264A1FB80
:1047000006E6A4FB07E816EB08064FF0000858F190
:104710000008E4FB01687642C8F1405838BFA8F1B0
:104720000108A2FB06E4A3FB08E52D194FF00004E5
:1047300054F10004E2FB0854A1FB05E6A7FB04E8E2
:1047400018EB06084FF0000656F10006E1FB048660
:1047500018F1200556F10006A809A8F11B08B109B7
:1047600008F03F08B8F10A0F40EA86601CD901EB57
:104770000C51BDE8F08100BFFCF5EEE8E2DDD8D3D6
:10478000CFCBC7C3C0BDB9B6B4B1AEACA9A7A5A3C2
:10479000A19F9D9B9A9896959392908F8D8C8B89D3
:1047A0008887868584838281A0FB006800FB01F2F4
:1047B00008EB4208B8EB872807D5341858EB0104FA
:1047C000D5D5401C51F10001D1E7341A78EB010432
:1047D000CDD4401E71F10001C9E75FEA4C0C5FEADD
:1047E0009C5C0DD105D34FF0000001F00041BDE805
:1047F000F081BDE8F04170B5FFF78EFE6DDBFFBEC6
:10480000BDE8F0414FF00000004970470000F87F1C
:1048100010B591EA030F48BF83F000433FF530AB7A
:10482000841A71EB030C07D212198CF0004C43EB85
:104830000C03001B61EB0C01DFF8A4E14FEA1154FB
:10484000A4EB135C1EEA430F18BF9EEA445F00F01E
:10485000B08023EA6E03524221EA0451C3EB6E0397
:1048600038BF5B1EDCF1200E25D322FA0CFE10EBC4
:104870000E0043FA0CFE41EB0E01CCF1200E03FAC0
:104880000EFE10EB0E0051F10001CCF1200E29D4E8
:1048900012FA0EF201EB0451BDE8104058BF704708
:1048A000401C1CBFB2F1004F704700280CBF491CD0
:1048B00020F00100704712EB020E43EB030218BF19
:1048C0004FF0010E4EEA4202ACF1200CDCF11E0E5C
:1048D00054D943FA0CFE10EB0E0051F1FF31CCF12C
:1048E0001E0ED5D50EF1010E12FA0EFE404141EB1F
:1048F000010101EB445C5FEA5C5C10D910EBDE70F7
:1049000001EB045138BFBEF1004FBDE8104018BFA5
:10491000704700280CBF491C20F00100704730D2BE
:104920004FEAD42C11F5001124F400641BD0B1FA25
:1049300081F20B3AA41AA41ED2F12003914030FA5E
:1049400003F31943904001EBCC71002C01EB0451AF
:10495000BDE81040A8BF704701F1C0414FF0000012
:1049600001F000417047B0FA80F310FA03F100D172
:1049700010BDE41A173C4805C90AE4E701EB0451ED
:1049800010BD491001EB0451BDE810404FEA300062
:1049900002E04FF0000170474A0008BF0042F8D023
:1049A000B2F5001F28BF704701F000414FF0000032
:1049B00070479EEA445F07D011EA5E0FBDE81040E1
:1049C00004BF002100207047BDE8104070B5FFF71C
:1049D000A3FD00BF40DFF63E83F000411046704764
:1049E0000000E0FF43004FEAD30C4FEA3C0C434089
:1049F0001FBF40070CF1605113F0FE4F70471CF0D1
:104A0000006F03D100200CF0004170470CF0004310
:104A100043EA507010B540EACC0000F03CFA00BF09
:104A2000000000924FEA0001FFF7C4BD4FF00041C3
:104A30004FF00000A1F500217047000090EA010F3F
:104A400048BF81F0004100F1AA82421A3CBF801A9F
:104A500089184FEAD0524FF07F4C1CEA410FA2EB6D
:104A6000D15318BF9CEA026F00F03B804FF0004C1E
:104A70004CEA00204CEA012121FA03FC10EB0C0C5B
:104A80001ED202F1FF325FEA1C2040EBC25038BF59
:104A900070471CF07F0F4FEA400C18BFBCF17F4FEE
:104AA00038BF7047C3F12003994008BF20F00100D0
:104AB000BCF17F4F38BF7047A0F1C04000F031BA61
:104AC0004FEA3C00000A40EBC25028BF1CF0FF0F29
:104AD0004FEA400CE6D018BFBCF17F4F38BF70479B
:104AE000EAE79CEA026F05D010EA5C0F08BF00F00D
:104AF0000040704710B500F0CEF900BF64FBBE3E29
:104B0000401058BFC0F14040491058BFC1F140416A
:104B10008142EFF3008070474FF47F0C1CEAD01203
:104B20001EBF1CEAD11392EA0C0F93EA0C0F00F09F
:104B3000858090EA010F48BF42F4807240F4000C77
:104B400041F400002CF07F4120F07F4000B581420D
:104B5000A2EB03020FF2081CACEB504EC0F10000B8
:104B60009EF800E04FEA4E0E00FB0EFC38BF4900F5
:104B70004FEA2C1C02F5FA020CFB0EF34FEACE1E94
:104B80004FEA112C4FEAC1210EEB635E42EB224249
:104B90000EFB0CFC4FEA1C5300FB03114FEA112CD7
:104BA0004FEA01310EFB0CFC4FEADC4C00FB0C1110
:104BB000C14228BF09184CEB03335DF804EB10EB3E
:104BC000410143EBC250B2F57C0F38BF704729D585
:104BD00012F0F00F1CBF00F1C04000F00040704721
:104BE000008182838485868788898B8C8D8E8F91C6
:104BF0009293959697999A9C9D9FA0A2A3A5A7A8EA
:104C0000AAACAEB0B2B3B5B7B9BCBEC0C2C5C7C915
:104C1000CCCED1D4D7D9DCDFE2E6E9ECF0F3F7FA79
:104C2000FE0000004FEA400C0CF1807CBCF17E4F8E
:104C300028BF7047B0F1C04000F073B990EA010F8F
:104C40000CEAD11348BF42F48072624538BF634515
:104C500007D213F47F0F16D080EA010000F0004065
:104C6000704710B500F017F9097EFC3E00F005B85A
:104C700080EA010000F00040704780EA010000F087
:104C8000004000F04EB912F47F0F04BF0248704795
:104C900080EA010000F045B90000C07F41000B0E22
:104CA000D3F19E0208D950F400034FEA032323FAFC
:104CB00002F048BF4042704710B500F0ECF800BF6A
:104CC00049922480002070476FF0004282EA200061
:104CD0007047000010F0004148BF4042B0FA80F336
:104CE00010FA03F2C3F19D030BD051EAC35101EB5B
:104CF0001220530638BF704700F1010008BF20F0B2
:104D000001007047B0FA80F310FA03F2C3F19D037B
:104D10000AD0D90501EB1220530638BF704700F1C5
:104D2000010008BF20F001007047000050EA010CAC
:104D300000F113801CF5000F58BFBCF5000F01D423
:104D40008842704707D710F5000F58BF11F5000FC4
:104D500015D488427047894270471CF5000F04D56E
:104D6000BCF5000FF7D5814270474FF0807C1CEBFB
:104D7000400F38BF1CEB410F01D28142704710B584
:104D800000F089F8922449004FF000504FF0805114
:104D9000FFF7B6BE4FF47F0C1CEAD0121EBF1CEA10
:104DA000D11392EA0C0F93EA0C0F00F0478090EABF
:104DB000010F48BF42F480724FF0004C4CEA0020D3
:104DC0004CEA012102EB0302A0FB0113A2F5000251
:104DD000002918BF43F001035B0028BF4FEA3303EB
:104DE00042EB22425FEA132C4CEBC2502EBFBCEBCD
:104DF000436FB2F57C0F70474FEA036CBCF1004F74
:104E000008BF20F00100B2F57C0F38BF70470BD50A
:104E100082F0FF0212F5803FC8BF704700F1C0402A
:104E2000D8BF00F00040704700F5000C5FEA4C0C62
:104E300048BF7047B0F1C04000F073B890EA010F6E
:104E40000CEAD11348BF42F48072624538BF634513
:104E500004D280EA010000F00040704710B500F075
:104E60001AF800BF8900013E00F007B800F009B849
:104E70005FEA410C5FEA1C6C08D080EA010000F098
:104E800050B85FEA400C5FEA1C6CF6D14FF000406E
:104E9000A0F5800070470EF1020E2EF0030E5EF8B2
:104EA000044B244204D44FEA4102B2F17F4F11D89F
:104EB0004FEA4003B3F17F4F0CD80ED14FEAD07CBC
:104EC000B2F17F4F0CEB4C0C0CF1020C08BF4CEB19
:104ED000D17C04E04FF0080C01E04FEAD17C0CEBF0
:104EE0004C0324FA03F404F00704B4F1040C06D2D2
:104EF0000EEB840CBDE810404CF0010C6047DFE87D
:104F00000CF0070802024FF00040A0F5800010BD31
:104F10000846420018BFD2F1807288BF00F00040FE
:104F200010BDFF2141EAD050C005704751EA000C86
:104F300000F113801CF5000F58BFBCF5000F01D421
:104F40008142704707D711F5000F58BF10F5000FC9
:104F500015D481427047894270471CF5000F04D573
:104F6000BCF5000FF7D5884270474FF0807C1CEBF2
:104F7000410F38BF1CEB400F01D28842704780EAD6
:104F8000010081EA000180EA0100FFF7F8BE00009D
:104F900090EA010F48BF81F000413FF556AD421A3B
:104FA00004D882F00042A0EB020011444FEAD05234
:104FB0004FF07F4C1CEA410FA2EBD15318BF9CEA83
:104FC000026F4AD04FF0004C4CEA00204CEA01211D
:104FD00021FA03FCB0EB0C0C0FD412F0FE0F36D00C
:104FE0005FEA4C001DD5001240EBC25038BF70473D
:104FF0001CF03F0F18BF70470BE0A2F101025FEAFF
:105000001C2040EBC25038BF70471CF07F0F18BF08
:105010007047C3F12003994014BF401E20F00100E7
:10502000704780084FEA122308BF7047B0FA80FC2F
:10503000A2EB0C02CCF1280C60FA0CF093EA122FD0
:1050400004BF00EBC25070474FEAC3707047130AA9
:105050005FEADC1008BF7047F6E79CEA026F04D0F5
:1050600010EA5C0F08BF0020704710B5FFF713FF70
:1050700040DFF63E81F0004070470CF00F03092B33
:1050800008BF082000F059800A2B0BD0082B18BF4E
:10509000704708BF1CF0400F0AD04FF000004FF0DF
:1050A000000170471CF0400F18BF4FF000407047E0
:1050B0001CF0100F08D020F0704300F07F4242EA4D
:1050C000D3014FEA4370704700F0604021F07F4207
:1050D00042EA000201F07F4040EA727070474FF0F0
:1050E000FF0C4CF4E06C1CEA11531CBF9CEA030C4F
:1050F0009445C2BFDA4201EB02517047002B0DD03C
:10510000BCF1000F0FD0002A01F00041A4BF41F014
:10511000E04141F07F614FF00000704701F0004135
:105120004FF00000704750EA01334FF09B0C18BF5E
:105130004CF0806C7EF444AF70471CF4801F11D09B
:105140001CF4E02F03D06FEACC31490070474FF0D8
:105150004050EFF3008222F0704242EA000282F3F4
:10516000008870474FF0000070470000000000000A
:10517000000000000000000000003F4000000000B0
:105180000000000030004000300040000000090036
:105190000BC03D000BC03D00090018C024407FE05B
:1051A000224031800000180024C01B000D803240D6
:1051B000018003801C4027401C80074000401000F5
:1051C000600000000000000000000000000000007F
:1051D0001F80204040200000402020401F80000011
:1051E0000000090006001F800600090000000400FE
:1051F00004003F8004000400000000100060000074
:10520000000000000000040004000400040004008A
:10521000000000000040000000000000000000202E
:1052200001C006003800400000001F8020402040E0
:1052300020401F800000000010403FC000400000E0
:10524000000018C021402240244018400000108077
:105250002040244024401B80000002000D0011006B
:105260003FC0014000003C80244024402440238073
:1052700000001F80244024403440038000003000A0
:10528000200027C03800200000001B80244024405C
:1052900024401B8000001C0022C0224022401F80AE
:1052A00000000000000008400000000000000000B6
:1052B00000000460000000000000000004000A007C
:1052C0001100208040400900090009000900090080
:1052D000000000004040208011000A000400180077
:1052E000200023402400180000001F802040274099
:1052F00029401F400000004007C039000F0001C0D6
:10530000004020403FC0244024401B8000001F80FC
:105310002040204020403080000020403FC02040FE
:1053200020401F80000020403FC024402E4030C05D
:10533000000020403FC024402E00300000000F003D
:105340001080204022403380020020403FC00400F3
:1053500004003FC02040204020403FC0204020406B
:1053600000000060202020203FC0200020002040BE
:105370003FC024400B0030C0204020403FC02040B0
:105380000040004000C03FC03C0003C03C003FC0A4
:10539000000020403FC00C4023003FC020001F8081
:1053A0002040204020401F80000020403FC024407B
:1053B0002400180000001F802140214020E01FA091
:1053C000000020403FC02440260019C0004018C003
:1053D00024402440224031800000300020403FC063
:1053E00020403000000020003F80004000403F800F
:1053F000200020003E0001C00700380020003800D7
:1054000007C03C0007C038000000204039C006003B
:1054100039C0204000002000384007C0384020003C
:105420000000304021C02640384020C0000000006D
:1054300000007FE0402040200000000070000C00D1
:105440000380004000000000402040207FE000007A
:1054500000000000200040002000000000000010BC
:1054600000100010001000100010000000004000AC
:10547000000000000000000002800540054003C05D
:10548000004020003FC004400440038000000000B2
:1054900003800440044006400000000003800440F4
:1054A00024403FC000400000038005400540034009
:1054B0000000000004401FC02440244020000000E1
:1054C00002E0055005500650042020403FC0044033
:1054D000040003C000400000044027C0004000005A
:1054E000000000100010041027E000000000204021
:1054F0003FC00140070004C00440204020403FC09E
:1055000000400040000007C0040007C0040003C0C2
:105510000000044007C00440040003C00040000035
:1055200003800440044003800000041007F004508E
:10553000044003800000000003800440045007F092
:105540000010044007C002400400040000000000F6
:1055500006400540054004C00000000004001F8014
:10556000044000400000040007800040044007C0E1
:1055700000400400070004C001800600040006008B
:1055800001C0070001C006000000044006C0010081
:1055900006C0044000000410071004E0018006006B
:1055A00004000000044005C0064004400000000064
:1055B000000004007BE0402000000000000000002C
:1055C000FFF000000000000040207BE0040000002D
:1055D000000040008000400020002000400000004B
:1055E00000000000000000000000000000000000BB
:1055F000000000001FCC000C0000000000000000B4
:105600000800300060000800300060000000022048
:1056100003FC1E20022003FC1E20022000000000CC
:105620000E1811043FFF10840C78000000000F00DA
:1056300010840F3800C007781884007800000078C4
:105640000F8410C411240E9800E4008400080800A0
:105650006800700000000000000000000000000072
:105660000000000007E018182004400200000000BD
:1056700040022004181807E000000000000002406B
:10568000024001800FF001800240024000000080D3
:10569000008000800FF80080008000800000000182
:1056A000000D000E000000000000000000000000DF
:1056B000008000800080008000800080008000006A
:1056C000000C000C000000000000000000000000C2
:1056D000000600180060018006001800200000008D
:1056E00007F0080810041004080807F00000000084
:1056F000080408041FFC000400040000000000006F
:105700000E0C10141024104411840E0C0000000024
:105710000C1810041104110412880C700000000011
:1057200000E00320042408241FFC002400000000E3
:105730001F981084110411041088107000000000DC
:1057400007F0088811041104188800700000000098
:105750001C00100010FC13001C00100000000000D2
:105760000E3811441084108411440E3800000000DB
:105770000700088C10441044088807F0000000005F
:1057800000000000030C030C0000000000000000FB
:105790000000000101060000000000000000000001
:1057A00000800140022004100808100400000220BC
:1057B000022002200220022002200220000000001D
:1057C00010040808041002200140008000000000BE
:1057D0000E001200100C106C10800F00000003E08F
:1057E0000C1813E4142417C4082807D00000000480
:1057F000003C03C41C40074000E4001C00041004EB
:105800001FFC1104110411040E880070000003E055
:105810000C1810041004100410081C1000001004D0
:105820001FFC100410041004080807F00000100406
:105830001FFC1104110417C4100408180000100400
:105840001FFC1104110017C010000800000003E045
:105850000C181004100410441C78004000001004C0
:105860001FFC10840080008010841FFC10040000C6
:10587000100410041FFC10041004000000000003BA
:105880000001100110011FFE1000100000001004A4
:105890001FFC110403801464181C10040000100481
:1058A0001FFC1004000400040004000C000010049D
:1058B0001FFC1F0000FC1F001FFC10040000100450
:1058C0001FFC0C04030000E010181FFC100007F080
:1058D0000808100410041004080807F00000100461
:1058E0001FFC10841080108010800F00000007F053
:1058F000081810241024101C080A07F200001004D5
:105900001FFC1104110011C011300E0C0004000026
:105910000E1C11041084108410441C380000180060
:10592000100010041FFC10041000180000001000EC
:105930001FF810040004000410041FF810001000E9
:105940001E0011E0001C007013801C0010001FC01E
:10595000103C00E01F0000E0103C1FC000001004DD
:10596000180C163401C001C01634180C10041000B5
:105970001C00130400FC13041C00100000000804A9
:10598000101C1064108413041C0410180000000084
:10599000000000007FFE40024002400200000000C4
:1059A00030000C0003800060001C000300000000B9
:1059B0004002400240027FFE0000000000000000A4
:1059C00000002000400040004000200000000001D6
:1059D00000010001000100010001000100010000C0
:1059E0004000400020000000000000000000000017
:1059F0000098012401440144014400FC000410000B
:105A00001FFC0088010401040088007000000000F1
:105A100000700088010401040104008800000000F7
:105A2000007000880104010411081FFC000400003C
:105A300000F8014401440144014400C80000000092
:105A4000010401040FFC11041104110018000000EE
:105A500000D601290129012901C90106000010040D
:105A60001FFC008401000100010400FC0004000090
:105A70000104190419FC00040004000000000000E7
:105A8000000300010101190119FE000000001004CB
:105A90001FFC0024004001B4010C010400000000C0
:105AA000100410041FFC00040004000000000104A6
:105AB00001FC0104010001FC0104010000FC0104DF
:105AC00001FC008401000100010400FC000400004E
:105AD00000F8010401040104010400F800000101C0
